{
  "contractName": "Capstone",
  "abi": [
    {
      "constant": true,
      "inputs": [
        {
          "name": "",
          "type": "address"
        }
      ],
      "name": "AddressToOfficer",
      "outputs": [
        {
          "name": "Officer",
          "type": "address"
        },
        {
          "name": "Name",
          "type": "string"
        },
        {
          "name": "StationName",
          "type": "string"
        },
        {
          "name": "StationAddress",
          "type": "string"
        },
        {
          "name": "Pin",
          "type": "uint256"
        },
        {
          "name": "StationCode",
          "type": "uint256"
        },
        {
          "name": "OfficerExists",
          "type": "bool"
        }
      ],
      "payable": false,
      "stateMutability": "view",
      "type": "function"
    },
    {
      "inputs": [],
      "payable": false,
      "stateMutability": "nonpayable",
      "type": "constructor"
    },
    {
      "anonymous": false,
      "inputs": [
        {
          "indexed": true,
          "name": "_From",
          "type": "address"
        },
        {
          "indexed": false,
          "name": "_Name",
          "type": "string"
        },
        {
          "indexed": true,
          "name": "_Adhar",
          "type": "string"
        },
        {
          "indexed": false,
          "name": "_details",
          "type": "string"
        },
        {
          "indexed": false,
          "name": "_status",
          "type": "uint8"
        }
      ],
      "name": "FirComplain",
      "type": "event"
    },
    {
      "constant": false,
      "inputs": [
        {
          "name": "_account",
          "type": "address"
        },
        {
          "name": "_Name",
          "type": "string"
        },
        {
          "name": "_StationName",
          "type": "string"
        },
        {
          "name": "_StationAddress",
          "type": "string"
        },
        {
          "name": "_Pin",
          "type": "uint256"
        },
        {
          "name": "_StationCode",
          "type": "uint256"
        }
      ],
      "name": "InitializeOfficerAccount",
      "outputs": [],
      "payable": false,
      "stateMutability": "nonpayable",
      "type": "function"
    },
    {
      "constant": false,
      "inputs": [
        {
          "name": "_Name",
          "type": "string"
        },
        {
          "name": "_Adhar",
          "type": "string"
        },
        {
          "name": "_Details",
          "type": "string"
        },
        {
          "name": "_StationCode",
          "type": "uint256"
        },
        {
          "name": "_topic",
          "type": "uint8"
        },
        {
          "name": "_severity",
          "type": "uint8"
        }
      ],
      "name": "PlaceFir",
      "outputs": [],
      "payable": false,
      "stateMutability": "nonpayable",
      "type": "function"
    },
    {
      "constant": false,
      "inputs": [
        {
          "name": "_compliant",
          "type": "address"
        },
        {
          "name": "_consent",
          "type": "bool"
        }
      ],
      "name": "ApproveDeclineFir",
      "outputs": [],
      "payable": false,
      "stateMutability": "nonpayable",
      "type": "function"
    }
  ],
  "bytecode": "0x608060405234801561001057600080fd5b50336000806101000a81548173ffffffffffffffffffffffffffffffffffffffff021916908373ffffffffffffffffffffffffffffffffffffffff1602179055506116c5806100606000396000f3fe608060405260043610610062576000357c0100000000000000000000000000000000000000000000000000000000900463ffffffff1680633d98fd0a1461006757806395d8336e14610291578063ab86d96c146102ee578063d411a35e14610508575b600080fd5b34801561007357600080fd5b5061028f600480360360c081101561008a57600080fd5b81019080803573ffffffffffffffffffffffffffffffffffffffff169060200190929190803590602001906401000000008111156100c757600080fd5b8201836020820111156100d957600080fd5b803590602001918460018302840111640100000000831117156100fb57600080fd5b91908080601f016020809104026020016040519081016040528093929190818152602001838380828437600081840152601f19601f8201169050808301925050505050505091929192908035906020019064010000000081111561015e57600080fd5b82018360208201111561017057600080fd5b8035906020019184600183028401116401000000008311171561019257600080fd5b91908080601f016020809104026020016040519081016040528093929190818152602001838380828437600081840152601f19601f820116905080830192505050505050509192919290803590602001906401000000008111156101f557600080fd5b82018360208201111561020757600080fd5b8035906020019184600183028401116401000000008311171561022957600080fd5b91908080601f016020809104026020016040519081016040528093929190818152602001838380828437600081840152601f19601f82011690508083019250505050505050919291929080359060200190929190803590602001909291905050506106f6565b005b34801561029d57600080fd5b506102ec600480360360408110156102b457600080fd5b81019080803573ffffffffffffffffffffffffffffffffffffffff16906020019092919080351515906020019092919050505061092b565b005b3480156102fa57600080fd5b50610506600480360360c081101561031157600080fd5b810190808035906020019064010000000081111561032e57600080fd5b82018360208201111561034057600080fd5b8035906020019184600183028401116401000000008311171561036257600080fd5b91908080601f016020809104026020016040519081016040528093929190818152602001838380828437600081840152601f19601f820116905080830192505050505050509192919290803590602001906401000000008111156103c557600080fd5b8201836020820111156103d757600080fd5b803590602001918460018302840111640100000000831117156103f957600080fd5b91908080601f016020809104026020016040519081016040528093929190818152602001838380828437600081840152601f19601f8201169050808301925050505050505091929192908035906020019064010000000081111561045c57600080fd5b82018360208201111561046e57600080fd5b8035906020019184600183028401116401000000008311171561049057600080fd5b91908080601f016020809104026020016040519081016040528093929190818152602001838380828437600081840152601f19601f82011690508083019250505050505050919291929080359060200190929190803560ff169060200190929190803560ff169060200190929190505050610ff6565b005b34801561051457600080fd5b506105576004803603602081101561052b57600080fd5b81019080803573ffffffffffffffffffffffffffffffffffffffff169060200190929190505050611375565b604051808873ffffffffffffffffffffffffffffffffffffffff1673ffffffffffffffffffffffffffffffffffffffff1681526020018060200180602001806020018781526020018681526020018515151515815260200184810384528a818151815260200191508051906020019080838360005b838110156105e75780820151818401526020810190506105cc565b50505050905090810190601f1680156106145780820380516001836020036101000a031916815260200191505b50848103835289818151815260200191508051906020019080838360005b8381101561064d578082015181840152602081019050610632565b50505050905090810190601f16801561067a5780820380516001836020036101000a031916815260200191505b50848103825288818151815260200191508051906020019080838360005b838110156106b3578082015181840152602081019050610698565b50505050905090810190601f1680156106e05780820380516001836020036101000a031916815260200191505b509a505050505050505050505060405180910390f35b336000809054906101000a900473ffffffffffffffffffffffffffffffffffffffff1673ffffffffffffffffffffffffffffffffffffffff168173ffffffffffffffffffffffffffffffffffffffff161415156107bb576040517f08c379a00000000000000000000000000000000000000000000000000000000081526004018080602001828103825260138152602001807f556e617574686f72697a6520616363657373210000000000000000000000000081525060200191505060405180910390fd5b60006001905060e0604051908101604052808973ffffffffffffffffffffffffffffffffffffffff168152602001888152602001878152602001868152602001858152602001848152602001821515815250600160008a73ffffffffffffffffffffffffffffffffffffffff1673ffffffffffffffffffffffffffffffffffffffff16815260200190815260200160002060008201518160000160006101000a81548173ffffffffffffffffffffffffffffffffffffffff021916908373ffffffffffffffffffffffffffffffffffffffff16021790555060208201518160010190805190602001906108af9291906115ac565b5060408201518160020190805190602001906108cc9291906115ac565b5060608201518160030190805190602001906108e99291906115ac565b506080820151816004015560a0820151816005015560c08201518160060160006101000a81548160ff0219169083151502179055509050505050505050505050565b338260011515600160008473ffffffffffffffffffffffffffffffffffffffff1673ffffffffffffffffffffffffffffffffffffffff16815260200190815260200160002060060160009054906101000a900460ff1615151415156109f8576040517f08c379a00000000000000000000000000000000000000000000000000000000081526004018080602001828103825260138152602001807f556e617574686f72697a6520616363657373210000000000000000000000000081525060200191505060405180910390fd5b600160008373ffffffffffffffffffffffffffffffffffffffff1673ffffffffffffffffffffffffffffffffffffffff16815260200190815260200160002060050154600260008373ffffffffffffffffffffffffffffffffffffffff1673ffffffffffffffffffffffffffffffffffffffff16815260200190815260200160002060040154141515610af3576040517f08c379a00000000000000000000000000000000000000000000000000000000081526004018080602001828103825260128152602001807f556e6174686f72697a652061636365737321000000000000000000000000000081525060200191505060405180910390fd5b8215610b62576000600260008673ffffffffffffffffffffffffffffffffffffffff1673ffffffffffffffffffffffffffffffffffffffff16815260200190815260200160002060050160026101000a81548160ff02191690836002811115610b5857fe5b0217905550610bc6565b60028060008673ffffffffffffffffffffffffffffffffffffffff1673ffffffffffffffffffffffffffffffffffffffff16815260200190815260200160002060050160026101000a81548160ff02191690836002811115610bc057fe5b02179055505b600260008573ffffffffffffffffffffffffffffffffffffffff1673ffffffffffffffffffffffffffffffffffffffff1681526020019081526020016000206002016040518082805460018160011615610100020316600290048015610c635780601f10610c41576101008083540402835291820191610c63565b820191906000526020600020905b815481529060010190602001808311610c4f575b50509150506040518091039020600260008673ffffffffffffffffffffffffffffffffffffffff1673ffffffffffffffffffffffffffffffffffffffff16815260200190815260200160002060000160009054906101000a900473ffffffffffffffffffffffffffffffffffffffff1673ffffffffffffffffffffffffffffffffffffffff167fe1367555a23201fc980c0692c6dd6edde146ae69fff74e90a9dafbb93e5530d4600260008873ffffffffffffffffffffffffffffffffffffffff1673ffffffffffffffffffffffffffffffffffffffff168152602001908152602001600020600101600260008973ffffffffffffffffffffffffffffffffffffffff1673ffffffffffffffffffffffffffffffffffffffff168152602001908152602001600020600301600260008a73ffffffffffffffffffffffffffffffffffffffff1673ffffffffffffffffffffffffffffffffffffffff16815260200190815260200160002060050160029054906101000a900460ff16604051808060200180602001846002811115610df657fe5b60ff168152602001838103835286818154600181600116156101000203166002900481526020019150805460018160011615610100020316600290048015610e7f5780601f10610e5457610100808354040283529160200191610e7f565b820191906000526020600020905b815481529060010190602001808311610e6257829003601f168201915b5050838103825285818154600181600116156101000203166002900481526020019150805460018160011615610100020316600290048015610f025780601f10610ed757610100808354040283529160200191610f02565b820191906000526020600020905b815481529060010190602001808311610ee557829003601f168201915b50509550505050505060405180910390a3600260008573ffffffffffffffffffffffffffffffffffffffff1673ffffffffffffffffffffffffffffffffffffffff168152602001908152602001600020600080820160006101000a81549073ffffffffffffffffffffffffffffffffffffffff0219169055600182016000610f8a919061162c565b600282016000610f9a919061162c565b600382016000610faa919061162c565b60048201600090556005820160006101000a81549060ff02191690556005820160016101000a81549060ff02191690556005820160026101000a81549060ff0219169055505050505050565b600060019050610100604051908101604052803373ffffffffffffffffffffffffffffffffffffffff16815260200188815260200187815260200186815260200185815260200184600281111561104957fe5b815260200183600281111561105a57fe5b815260200182600281111561106b57fe5b815250600260003373ffffffffffffffffffffffffffffffffffffffff1673ffffffffffffffffffffffffffffffffffffffff16815260200190815260200160002060008201518160000160006101000a81548173ffffffffffffffffffffffffffffffffffffffff021916908373ffffffffffffffffffffffffffffffffffffffff16021790555060208201518160010190805190602001906111109291906115ac565b50604082015181600201908051906020019061112d9291906115ac565b50606082015181600301908051906020019061114a9291906115ac565b506080820151816004015560a08201518160050160006101000a81548160ff0219169083600281111561117957fe5b021790555060c08201518160050160016101000a81548160ff021916908360028111156111a257fe5b021790555060e08201518160050160026101000a81548160ff021916908360028111156111cb57fe5b0217905550905050856040518082805190602001908083835b60208310151561120957805182526020820191506020810190506020830392506111e4565b6001836020036101000a03801982511681845116808217855250505050505090500191505060405180910390203373ffffffffffffffffffffffffffffffffffffffff167fe1367555a23201fc980c0692c6dd6edde146ae69fff74e90a9dafbb93e5530d489888560405180806020018060200184600281111561128957fe5b60ff168152602001838103835286818151815260200191508051906020019080838360005b838110156112c95780820151818401526020810190506112ae565b50505050905090810190601f1680156112f65780820380516001836020036101000a031916815260200191505b50838103825285818151815260200191508051906020019080838360005b8381101561132f578082015181840152602081019050611314565b50505050905090810190601f16801561135c5780820380516001836020036101000a031916815260200191505b509550505050505060405180910390a350505050505050565b60016020528060005260406000206000915090508060000160009054906101000a900473ffffffffffffffffffffffffffffffffffffffff1690806001018054600181600116156101000203166002900480601f0160208091040260200160405190810160405280929190818152602001828054600181600116156101000203166002900480156114475780601f1061141c57610100808354040283529160200191611447565b820191906000526020600020905b81548152906001019060200180831161142a57829003601f168201915b505050505090806002018054600181600116156101000203166002900480601f0160208091040260200160405190810160405280929190818152602001828054600181600116156101000203166002900480156114e55780601f106114ba576101008083540402835291602001916114e5565b820191906000526020600020905b8154815290600101906020018083116114c857829003601f168201915b505050505090806003018054600181600116156101000203166002900480601f0160208091040260200160405190810160405280929190818152602001828054600181600116156101000203166002900480156115835780601f1061155857610100808354040283529160200191611583565b820191906000526020600020905b81548152906001019060200180831161156657829003601f168201915b5050505050908060040154908060050154908060060160009054906101000a900460ff16905087565b828054600181600116156101000203166002900490600052602060002090601f016020900481019282601f106115ed57805160ff191683800117855561161b565b8280016001018555821561161b579182015b8281111561161a5782518255916020019190600101906115ff565b5b5090506116289190611674565b5090565b50805460018160011615610100020316600290046000825580601f106116525750611671565b601f0160209004906000526020600020908101906116709190611674565b5b50565b61169691905b8082111561169257600081600090555060010161167a565b5090565b9056fea165627a7a72305820f33cb40612962a9233cc5ef8bbad9e21288685599ba876522e9dce922680756a0029",
  "source": "/*\r\n\r\n1) Read a lot. Read widely. \r\n2) Don't jump to conclusions\r\n3) Create systems, not goals\r\n4) Argue with yourself\r\n5) Be willing to change your opinion\r\n6) Write\r\n7) Seek adversity﻿ \r\n\r\n*/\r\n\r\npragma solidity >=0.4.21 <0.6.0;\r\n\r\ncontract Capstone {\r\n    \r\n    address private owner;\r\n\r\n    constructor() public{\r\n        owner = msg.sender;\r\n    }\r\n\r\n    enum Topic {crime, cyber, miscellaneous}\r\n    enum Severity {low, moderate, extreme}\r\n    enum Status {lodged, pending, declined}\r\n    enum Sex {Male, Female}\r\n\r\n    struct Officer {\r\n        address Officer;\r\n        string Name;\r\n        string StationName;\r\n        string StationAddress;\r\n        uint256 Pin;\r\n        uint256 StationCode;\r\n        bool OfficerExists;\r\n    }\r\n\r\n    struct FIR {\r\n        address Compliant;\r\n        string Name;\r\n        string Adhar;        \r\n        string Details;\r\n        uint256 StationCode;\r\n        Topic topic;\r\n        Severity severity;\r\n        Status status;\r\n    }\r\n\r\n    mapping (address => Officer) public AddressToOfficer;\r\n    mapping (address => FIR) private AddressToFir;\r\n\r\n    modifier OwnerOnly(address _account){\r\n        require (_account == owner, \"Unauthorize access!\");\r\n        _;\r\n    }\r\n\r\n    function InitializeOfficerAccount (\r\n            address _account,\r\n            string memory _Name,\r\n            string memory _StationName,\r\n            string memory _StationAddress,\r\n            uint256 _Pin,\r\n            uint256 _StationCode\r\n        ) public OwnerOnly(msg.sender) {\r\n            bool exists = true;\r\n            AddressToOfficer[_account] = Officer( _account, _Name, _StationName, _StationAddress, _Pin, _StationCode, exists);\r\n    }\r\n\r\n    modifier AuthorizeOfficerOnly(address _officer, address _compliant){\r\n        require(AddressToOfficer[_officer].OfficerExists == true, \"Unauthorize access!\");\r\n        require(AddressToFir[_compliant].StationCode == AddressToOfficer[_officer].StationCode, \"Unathorize access!\");\r\n        _;\r\n    }\r\n\r\n     event FirComplain (\r\n        address indexed _From,\r\n        string _Name,\r\n        string indexed _Adhar,\r\n        string _details,\r\n        Status _status\r\n    );\r\n\r\n    function PlaceFir (\r\n        string memory _Name,\r\n        string memory _Adhar,\r\n        string memory _Details,\r\n        uint256 _StationCode,\r\n        Topic _topic,\r\n        Severity _severity\r\n    ) public {\r\n        Status _status = Status.pending;\r\n        AddressToFir[msg.sender] = FIR(msg.sender, _Name, _Adhar, _Details, _StationCode, _topic, _severity, _status);\r\n        emit FirComplain(msg.sender, _Name, _Adhar, _Details, _status);\r\n    }\r\n\r\n    function ApproveDeclineFir (address _compliant, bool _consent) public AuthorizeOfficerOnly(msg.sender, _compliant) {\r\n        if(_consent){\r\n            AddressToFir[_compliant].status = Status.lodged;\r\n        } else {\r\n            AddressToFir[_compliant].status = Status.declined;\r\n        }\r\n\r\n        emit FirComplain(AddressToFir[_compliant].Compliant, AddressToFir[_compliant].Name, AddressToFir[_compliant].Adhar, AddressToFir[_compliant].Details, AddressToFir[_compliant].status);\r\n        delete AddressToFir[_compliant];\r\n    }\r\n}",
  "sourcePath": "G:/lazy/desktop/engineering/CSE 8th SEM/capstone project/init/contracts/maincontract.sol",
  "compiler": {
    "name": "solc",
    "version": "0.5.0+commit.1d4f565a.Emscripten.clang"
  },
  "schemaVersion": "3.0.0",
  "updatedAt": "2019-02-16T22:47:28.733Z",
  "devdoc": {
    "methods": {}
  },
  "userdoc": {
    "methods": {}
  }
}