{
  "contractName": "Capstone",
  "abi": [
    {
      "constant": true,
      "inputs": [
        {
          "name": "",
          "type": "address"
        }
      ],
      "name": "AddressToPolicestationcode",
      "outputs": [
        {
          "name": "",
          "type": "uint256"
        }
      ],
      "payable": false,
      "stateMutability": "view",
      "type": "function"
    },
    {
      "inputs": [],
      "payable": false,
      "stateMutability": "nonpayable",
      "type": "constructor"
    },
    {
      "constant": false,
      "inputs": [
        {
          "name": "_laceOfOccurance",
          "type": "string"
        },
        {
          "name": "_Name",
          "type": "string"
        },
        {
          "name": "_Adhar",
          "type": "string"
        },
        {
          "name": "_Subject",
          "type": "string"
        },
        {
          "name": "_Address",
          "type": "string"
        },
        {
          "name": "_details",
          "type": "string"
        },
        {
          "name": "_Email",
          "type": "string"
        },
        {
          "name": "_MobileNo",
          "type": "int256"
        },
        {
          "name": "_Telephone",
          "type": "int256"
        },
        {
          "name": "_Age",
          "type": "int8"
        },
        {
          "name": "_Pin",
          "type": "int8"
        },
        {
          "name": "_topic",
          "type": "uint8"
        },
        {
          "name": "_severity",
          "type": "uint8"
        },
        {
          "name": "_sex",
          "type": "uint8"
        }
      ],
      "name": "PlaceFir",
      "outputs": [],
      "payable": false,
      "stateMutability": "nonpayable",
      "type": "function"
    }
  ],
  "bytecode": "0x608060405234801561001057600080fd5b50336000806101000a81548173ffffffffffffffffffffffffffffffffffffffff021916908373ffffffffffffffffffffffffffffffffffffffff1602179055506105b2806100606000396000f3fe60806040526004361061004c576000357c0100000000000000000000000000000000000000000000000000000000900463ffffffff16806348bfa2b91461005157806363b38d98146100b6575b600080fd5b34801561005d57600080fd5b506100a06004803603602081101561007457600080fd5b81019080803573ffffffffffffffffffffffffffffffffffffffff16906020019092919050505061055e565b6040518082815260200191505060405180910390f35b3480156100c257600080fd5b5061055c60048036036101c08110156100da57600080fd5b81019080803590602001906401000000008111156100f757600080fd5b82018360208201111561010957600080fd5b8035906020019184600183028401116401000000008311171561012b57600080fd5b91908080601f016020809104026020016040519081016040528093929190818152602001838380828437600081840152601f19601f8201169050808301925050505050505091929192908035906020019064010000000081111561018e57600080fd5b8201836020820111156101a057600080fd5b803590602001918460018302840111640100000000831117156101c257600080fd5b91908080601f016020809104026020016040519081016040528093929190818152602001838380828437600081840152601f19601f8201169050808301925050505050505091929192908035906020019064010000000081111561022557600080fd5b82018360208201111561023757600080fd5b8035906020019184600183028401116401000000008311171561025957600080fd5b91908080601f016020809104026020016040519081016040528093929190818152602001838380828437600081840152601f19601f820116905080830192505050505050509192919290803590602001906401000000008111156102bc57600080fd5b8201836020820111156102ce57600080fd5b803590602001918460018302840111640100000000831117156102f057600080fd5b91908080601f016020809104026020016040519081016040528093929190818152602001838380828437600081840152601f19601f8201169050808301925050505050505091929192908035906020019064010000000081111561035357600080fd5b82018360208201111561036557600080fd5b8035906020019184600183028401116401000000008311171561038757600080fd5b91908080601f016020809104026020016040519081016040528093929190818152602001838380828437600081840152601f19601f820116905080830192505050505050509192919290803590602001906401000000008111156103ea57600080fd5b8201836020820111156103fc57600080fd5b8035906020019184600183028401116401000000008311171561041e57600080fd5b91908080601f016020809104026020016040519081016040528093929190818152602001838380828437600081840152601f19601f8201169050808301925050505050505091929192908035906020019064010000000081111561048157600080fd5b82018360208201111561049357600080fd5b803590602001918460018302840111640100000000831117156104b557600080fd5b91908080601f016020809104026020016040519081016040528093929190818152602001838380828437600081840152601f19601f8201169050808301925050505050505091929192908035906020019092919080359060200190929190803560000b9060200190929190803560000b9060200190929190803560ff169060200190929190803560ff169060200190929190803560ff169060200190929190505050610576565b005b60016020528060005260406000206000915090505481565b505050505050505050505050505056fea165627a7a72305820ce4231446c5f8636d6f5707f29526335afdbbc9a4981cd8a109ee87e20ae75f00029",
  "source": "pragma solidity >=0.4.21 <0.6.0;\r\n\r\ncontract Capstone {\r\n    \r\n    address private owner;\r\n\r\n    enum Topic {crime, cyber, miscellaneous}\r\n    enum Severity {low, moderate, extreme}\r\n    enum Sex {Male, Female}\r\n\r\n    struct FIR {\r\n        string PlaceOfOccurance;\r\n        string Name;\r\n        string Adhar;        \r\n        string Subject;\r\n        string Address;\r\n        string details;\r\n        string Email;\r\n        int256 MobileNo;\r\n        int256 Telephone;\r\n        int8 Age;\r\n        int8 Pin;\r\n        Topic topic;\r\n        Severity severity;\r\n        Sex sex;\r\n    }\r\n\r\n    mapping (address => uint256) public AddressToPolicestationcode;\r\n    mapping (address => FIR) private FIRToAddress;\r\n\r\n    constructor() public{\r\n        owner = msg.sender;\r\n    }\r\n\r\n    function PlaceFir (\r\n        string memory _laceOfOccurance,\r\n        string memory _Name,\r\n        string memory _Adhar,\r\n        string memory _Subject,\r\n        string memory _Address,\r\n        string memory _details,\r\n        string memory _Email,\r\n        int256 _MobileNo,\r\n        int256 _Telephone,\r\n        int8 _Age,\r\n        int8 _Pin,\r\n        Topic _topic,\r\n        Severity _severity,\r\n        Sex _sex\r\n    ) public {\r\n        \r\n    }\r\n\r\n}",
  "sourcePath": "G:/lazy/desktop/engineering/CSE 8th SEM/capstone project/init/contracts/maincontract.sol",
  "compiler": {
    "name": "solc",
    "version": "0.5.0+commit.1d4f565a.Emscripten.clang"
  },
  "schemaVersion": "3.0.0",
  "updatedAt": "2019-02-13T07:57:22.744Z",
  "devdoc": {
    "methods": {}
  },
  "userdoc": {
    "methods": {}
  }
}